{
  "contractName": "Proposal",
  "abi": [
    {
      "constant": true,
      "inputs": [
        {
          "name": "",
          "type": "uint256"
        }
      ],
      "name": "transferMotions",
      "outputs": [
        {
          "name": "id",
          "type": "uint256"
        },
        {
          "name": "amount",
          "type": "uint256"
        },
        {
          "name": "receivingAccount",
          "type": "address"
        },
        {
          "name": "completed",
          "type": "bool"
        }
      ],
      "payable": false,
      "stateMutability": "view",
      "type": "function"
    },
    {
      "constant": true,
      "inputs": [],
      "name": "optionsCount",
      "outputs": [
        {
          "name": "",
          "type": "uint256"
        }
      ],
      "payable": false,
      "stateMutability": "view",
      "type": "function"
    },
    {
      "constant": true,
      "inputs": [
        {
          "name": "",
          "type": "uint256"
        }
      ],
      "name": "options",
      "outputs": [
        {
          "name": "id",
          "type": "uint256"
        },
        {
          "name": "name",
          "type": "string"
        },
        {
          "name": "voteCount",
          "type": "uint256"
        }
      ],
      "payable": false,
      "stateMutability": "view",
      "type": "function"
    },
    {
      "constant": true,
      "inputs": [],
      "name": "voterCount",
      "outputs": [
        {
          "name": "",
          "type": "uint256"
        }
      ],
      "payable": false,
      "stateMutability": "view",
      "type": "function"
    },
    {
      "constant": true,
      "inputs": [
        {
          "name": "",
          "type": "uint256"
        }
      ],
      "name": "mintMotions",
      "outputs": [
        {
          "name": "id",
          "type": "uint256"
        },
        {
          "name": "amount",
          "type": "uint256"
        },
        {
          "name": "completed",
          "type": "bool"
        }
      ],
      "payable": false,
      "stateMutability": "view",
      "type": "function"
    },
    {
      "constant": true,
      "inputs": [],
      "name": "tokenContract",
      "outputs": [
        {
          "name": "",
          "type": "address"
        }
      ],
      "payable": false,
      "stateMutability": "view",
      "type": "function"
    },
    {
      "constant": true,
      "inputs": [
        {
          "name": "",
          "type": "address"
        }
      ],
      "name": "voters",
      "outputs": [
        {
          "name": "name",
          "type": "string"
        },
        {
          "name": "hasVoted",
          "type": "bool"
        }
      ],
      "payable": false,
      "stateMutability": "view",
      "type": "function"
    },
    {
      "constant": true,
      "inputs": [],
      "name": "selectedProposal",
      "outputs": [
        {
          "name": "id",
          "type": "uint256"
        },
        {
          "name": "kind",
          "type": "string"
        }
      ],
      "payable": false,
      "stateMutability": "view",
      "type": "function"
    },
    {
      "constant": true,
      "inputs": [],
      "name": "transferProposalCount",
      "outputs": [
        {
          "name": "",
          "type": "uint256"
        }
      ],
      "payable": false,
      "stateMutability": "view",
      "type": "function"
    },
    {
      "constant": true,
      "inputs": [
        {
          "name": "",
          "type": "uint256"
        }
      ],
      "name": "votersByIndex",
      "outputs": [
        {
          "name": "myAddress",
          "type": "address"
        },
        {
          "name": "name",
          "type": "string"
        }
      ],
      "payable": false,
      "stateMutability": "view",
      "type": "function"
    },
    {
      "constant": true,
      "inputs": [],
      "name": "mintProposalCount",
      "outputs": [
        {
          "name": "",
          "type": "uint256"
        }
      ],
      "payable": false,
      "stateMutability": "view",
      "type": "function"
    },
    {
      "inputs": [
        {
          "name": "_tokenContract",
          "type": "address"
        }
      ],
      "payable": false,
      "stateMutability": "nonpayable",
      "type": "constructor"
    },
    {
      "anonymous": false,
      "inputs": [
        {
          "indexed": true,
          "name": "_optionId",
          "type": "uint256"
        }
      ],
      "name": "votedEvent",
      "type": "event"
    },
    {
      "anonymous": false,
      "inputs": [
        {
          "indexed": true,
          "name": "_voterAddress",
          "type": "address"
        }
      ],
      "name": "nameAssignEvent",
      "type": "event"
    },
    {
      "constant": false,
      "inputs": [
        {
          "name": "_id",
          "type": "uint256"
        },
        {
          "name": "_kind",
          "type": "string"
        }
      ],
      "name": "assignProposalSelection",
      "outputs": [],
      "payable": false,
      "stateMutability": "nonpayable",
      "type": "function"
    },
    {
      "constant": true,
      "inputs": [
        {
          "name": "a",
          "type": "string"
        },
        {
          "name": "b",
          "type": "string"
        }
      ],
      "name": "compareStrings",
      "outputs": [
        {
          "name": "",
          "type": "bool"
        }
      ],
      "payable": false,
      "stateMutability": "view",
      "type": "function"
    },
    {
      "constant": false,
      "inputs": [
        {
          "name": "_name",
          "type": "string"
        }
      ],
      "name": "assignVoterName",
      "outputs": [],
      "payable": false,
      "stateMutability": "nonpayable",
      "type": "function"
    },
    {
      "constant": false,
      "inputs": [
        {
          "name": "_amount",
          "type": "uint256"
        },
        {
          "name": "_receivingAccount",
          "type": "address"
        }
      ],
      "name": "createTransferProposal",
      "outputs": [],
      "payable": false,
      "stateMutability": "nonpayable",
      "type": "function"
    },
    {
      "constant": false,
      "inputs": [
        {
          "name": "_amount",
          "type": "uint256"
        }
      ],
      "name": "createMintProposal",
      "outputs": [],
      "payable": false,
      "stateMutability": "nonpayable",
      "type": "function"
    },
    {
      "constant": false,
      "inputs": [
        {
          "name": "_optionId",
          "type": "uint256"
        }
      ],
      "name": "vote",
      "outputs": [],
      "payable": false,
      "stateMutability": "nonpayable",
      "type": "function"
    }
  ],
  "bytecode": "0x60806040523480156200001157600080fd5b506040516020806200153783398101806040528101908080519060200190929190505050620000846040805190810160405280600381526020017f59657300000000000000000000000000000000000000000000000000000000008152506200011a640100000000026401000000009004565b620000d36040805190810160405280600281526020017f4e6f0000000000000000000000000000000000000000000000000000000000008152506200011a640100000000026401000000009004565b806000806101000a81548173ffffffffffffffffffffffffffffffffffffffff021916908373ffffffffffffffffffffffffffffffffffffffff1602179055505062000248565b600660008154809291906001019190505550606060405190810160405280600654815260200182815260200160008152506005600060065481526020019081526020016000206000820151816000015560208201518160010190805190602001906200018892919062000199565b506040820151816002015590505050565b828054600181600116156101000203166002900490600052602060002090601f016020900481019282601f10620001dc57805160ff19168380011785556200020d565b828001600101855582156200020d579182015b828111156200020c578251825591602001919060010190620001ef565b5b5090506200021c919062000220565b5090565b6200024591905b808211156200024157600081600090555060010162000227565b5090565b90565b6112df80620002586000396000f3006080604052600436106100f0576000357c0100000000000000000000000000000000000000000000000000000000900463ffffffff168062ec523c146100f55780630121b93f1461017b5780631a1dbabb146101a857806337dabb80146101d3578063409e22051461022057806342169e48146102d4578063452022df146102ff5780635303e56c1461035257806355a373d6146103bb578063929adad614610412578063a3ec138d1461043f578063a6a2cb0514610506578063bed34bba1461059d578063d396f6a014610664578063de47313f1461068f578063f2dc48f014610702578063fcb66077146107db575b600080fd5b34801561010157600080fd5b5061012060048036038101908080359060200190929190505050610806565b604051808581526020018481526020018373ffffffffffffffffffffffffffffffffffffffff1673ffffffffffffffffffffffffffffffffffffffff1681526020018215151515815260200194505050505060405180910390f35b34801561018757600080fd5b506101a660048036038101908080359060200190929190505050610863565b005b3480156101b457600080fd5b506101bd61098c565b6040518082815260200191505060405180910390f35b3480156101df57600080fd5b5061021e60048036038101908080359060200190929190803573ffffffffffffffffffffffffffffffffffffffff169060200190929190505050610992565b005b34801561022c57600080fd5b5061024b60048036038101908080359060200190929190505050610a78565b6040518084815260200180602001838152602001828103825284818151815260200191508051906020019080838360005b8381101561029757808201518184015260208101905061027c565b50505050905090810190601f1680156102c45780820380516001836020036101000a031916815260200191505b5094505050505060405180910390f35b3480156102e057600080fd5b506102e9610b3a565b6040518082815260200191505060405180910390f35b34801561030b57600080fd5b5061032a60048036038101908080359060200190929190505050610b40565b6040518084815260200183815260200182151515158152602001935050505060405180910390f35b34801561035e57600080fd5b506103b9600480360381019080803590602001908201803590602001908080601f0160208091040260200160405190810160405280939291908181526020018383808284378201915050505050509192919290505050610b77565b005b3480156103c757600080fd5b506103d0610dee565b604051808273ffffffffffffffffffffffffffffffffffffffff1673ffffffffffffffffffffffffffffffffffffffff16815260200191505060405180910390f35b34801561041e57600080fd5b5061043d60048036038101908080359060200190929190505050610e13565b005b34801561044b57600080fd5b50610480600480360381019080803573ffffffffffffffffffffffffffffffffffffffff169060200190929190505050610e95565b604051808060200183151515158152602001828103825284818151815260200191508051906020019080838360005b838110156104ca5780820151818401526020810190506104af565b50505050905090810190601f1680156104f75780820380516001836020036101000a031916815260200191505b50935050505060405180910390f35b34801561051257600080fd5b5061051b610f5e565b6040518083815260200180602001828103825283818151815260200191508051906020019080838360005b83811015610561578082015181840152602081019050610546565b50505050905090810190601f16801561058e5780820380516001836020036101000a031916815260200191505b50935050505060405180910390f35b3480156105a957600080fd5b5061064a600480360381019080803590602001908201803590602001908080601f0160208091040260200160405190810160405280939291908181526020018383808284378201915050505050509192919290803590602001908201803590602001908080601f0160208091040260200160405190810160405280939291908181526020018383808284378201915050505050509192919290505050611008565b604051808215151515815260200191505060405180910390f35b34801561067057600080fd5b506106796110e1565b6040518082815260200191505060405180910390f35b34801561069b57600080fd5b5061070060048036038101908080359060200190929190803590602001908201803590602001908080601f01602080910402602001604051908101604052809392919081815260200183838082843782019150505050505091929192905050506110e7565b005b34801561070e57600080fd5b5061072d6004803603810190808035906020019092919050505061112c565b604051808373ffffffffffffffffffffffffffffffffffffffff1673ffffffffffffffffffffffffffffffffffffffff16815260200180602001828103825283818151815260200191508051906020019080838360005b8381101561079f578082015181840152602081019050610784565b50505050905090810190601f1680156107cc5780820380516001836020036101000a031916815260200191505b50935050505060405180910390f35b3480156107e757600080fd5b506107f0611208565b6040518082815260200191505060405180910390f35b60046020528060005260406000206000915090508060000154908060010154908060020160009054906101000a900473ffffffffffffffffffffffffffffffffffffffff16908060020160149054906101000a900460ff16905084565b600160003373ffffffffffffffffffffffffffffffffffffffff1673ffffffffffffffffffffffffffffffffffffffff16815260200190815260200160002060010160009054906101000a900460ff161515156108bf57600080fd5b6000811180156108d157506006548111155b15156108dc57600080fd5b60018060003373ffffffffffffffffffffffffffffffffffffffff1673ffffffffffffffffffffffffffffffffffffffff16815260200190815260200160002060010160006101000a81548160ff0219169083151502179055506005600082815260200190815260200160002060020160008154809291906001019190505550807ffff3c900d938d21d0990d786e819f29b8d05c1ef587b462b939609625b684b1660405160405180910390a250565b60065481565b60086000815480929190600101919050555060806040519081016040528060085481526020018381526020018273ffffffffffffffffffffffffffffffffffffffff16815260200160001515815250600460006008548152602001908152602001600020600082015181600001556020820151816001015560408201518160020160006101000a81548173ffffffffffffffffffffffffffffffffffffffff021916908373ffffffffffffffffffffffffffffffffffffffff16021790555060608201518160020160146101000a81548160ff0219169083151502179055509050505050565b6005602052806000526040600020600091509050806000015490806001018054600181600116156101000203166002900480601f016020809104026020016040519081016040528092919081815260200182805460018160011615610100020316600290048015610b2a5780601f10610aff57610100808354040283529160200191610b2a565b820191906000526020600020905b815481529060010190602001808311610b0d57829003601f168201915b5050505050908060020154905083565b60075481565b60036020528060005260406000206000915090508060000154908060010154908060020160009054906101000a900460ff16905083565b610bb6816040805190810160405280600481526020017f62616e6b00000000000000000000000000000000000000000000000000000000815250611008565b15610c5757604080519081016040528082815260200160011515815250600160003373ffffffffffffffffffffffffffffffffffffffff1673ffffffffffffffffffffffffffffffffffffffff1681526020019081526020016000206000820151816000019080519060200190610c2e92919061120e565b5060208201518160010160006101000a81548160ff021916908315150217905550905050610deb565b60076000815480929190600101919050555060408051908101604052803373ffffffffffffffffffffffffffffffffffffffff1681526020018281525060026000600754815260200190815260200160002060008201518160000160006101000a81548173ffffffffffffffffffffffffffffffffffffffff021916908373ffffffffffffffffffffffffffffffffffffffff1602179055506020820151816001019080519060200190610d0c92919061120e565b50905050604080519081016040528082815260200160001515815250600160003373ffffffffffffffffffffffffffffffffffffffff1673ffffffffffffffffffffffffffffffffffffffff1681526020019081526020016000206000820151816000019080519060200190610d8392919061120e565b5060208201518160010160006101000a81548160ff0219169083151502179055509050503373ffffffffffffffffffffffffffffffffffffffff167f4063825db05f16fcf5cbf04973ca56f43013dcb563ea5c5403a0d920062a4b0960405160405180910390a25b50565b6000809054906101000a900473ffffffffffffffffffffffffffffffffffffffff1681565b600960008154809291906001019190505550606060405190810160405280600954815260200182815260200160001515815250600360006009548152602001908152602001600020600082015181600001556020820151816001015560408201518160020160006101000a81548160ff02191690831515021790555090505050565b6001602052806000526040600020600091509050806000018054600181600116156101000203166002900480601f016020809104026020016040519081016040528092919081815260200182805460018160011615610100020316600290048015610f415780601f10610f1657610100808354040283529160200191610f41565b820191906000526020600020905b815481529060010190602001808311610f2457829003601f168201915b5050505050908060010160009054906101000a900460ff16905082565b600a806000015490806001018054600181600116156101000203166002900480601f016020809104026020016040519081016040528092919081815260200182805460018160011615610100020316600290048015610ffe5780601f10610fd357610100808354040283529160200191610ffe565b820191906000526020600020905b815481529060010190602001808311610fe157829003601f168201915b5050505050905082565b6000816040518082805190602001908083835b602083101515611040578051825260208201915060208101905060208303925061101b565b6001836020036101000a038019825116818451168082178552505050505050905001915050604051809103902060001916836040518082805190602001908083835b6020831015156110a75780518252602082019150602081019050602083039250611082565b6001836020036101000a03801982511681845116808217855250505050505090500191505060405180910390206000191614905092915050565b60085481565b604080519081016040528083815260200182815250600a60008201518160000155602082015181600101908051906020019061112492919061120e565b509050505050565b60026020528060005260406000206000915090508060000160009054906101000a900473ffffffffffffffffffffffffffffffffffffffff1690806001018054600181600116156101000203166002900480601f0160208091040260200160405190810160405280929190818152602001828054600181600116156101000203166002900480156111fe5780601f106111d3576101008083540402835291602001916111fe565b820191906000526020600020905b8154815290600101906020018083116111e157829003601f168201915b5050505050905082565b60095481565b828054600181600116156101000203166002900490600052602060002090601f016020900481019282601f1061124f57805160ff191683800117855561127d565b8280016001018555821561127d579182015b8281111561127c578251825591602001919060010190611261565b5b50905061128a919061128e565b5090565b6112b091905b808211156112ac576000816000905550600101611294565b5090565b905600a165627a7a72305820e88aec5508b53e176491ede5470f1e51d625f6b9709858698dd1bac573cafc7b0029",
  "source": "// solium-disable linebreak-style\r\npragma solidity ^0.4.2;\r\nimport \"./OwnerToken.sol\";\r\ncontract Proposal {\r\n    // Model a option\r\n    struct Option {\r\n        uint id;\r\n        string name;\r\n        uint voteCount;\r\n    }\r\n\r\n    struct Voter {\r\n        string name;\r\n        bool hasVoted;\r\n    }\r\n\r\n    struct VoterWithAddress {\r\n        address myAddress;\r\n        string name;\r\n    }\r\n\r\n    struct SelectedProposal {\r\n        uint id;\r\n        string kind;\r\n    }\r\n\r\n    struct TransferMotion {\r\n        uint id;\r\n        uint amount;\r\n        address receivingAccount;\r\n        bool completed;\r\n    }\r\n\r\n    struct MintMotion {\r\n        uint id;\r\n        uint amount;\r\n        bool completed;\r\n    }\r\n\r\n    OwnerToken public tokenContract;\r\n\r\n    // Store accounts that have voted\r\n    //mapping(address => bool) public voters;\r\n    mapping(address => Voter) public voters;\r\n    mapping(uint => VoterWithAddress) public votersByIndex;\r\n    mapping(uint => MintMotion) public mintMotions;\r\n    mapping(uint => TransferMotion) public transferMotions;\r\n\r\n    // Store options\r\n    // Fetch option\r\n    mapping(uint => Option) public options;\r\n    // Store options Count\r\n    uint public optionsCount;\r\n    uint public voterCount;\r\n    uint public transferProposalCount;\r\n    uint public mintProposalCount;\r\n    SelectedProposal public selectedProposal;\r\n\r\n    // voted event\r\n    event votedEvent (\r\n        uint indexed _optionId\r\n    );\r\n\r\n    event nameAssignEvent (\r\n        address indexed _voterAddress\r\n    );\r\n\r\n    constructor (OwnerToken _tokenContract) public {\r\n        addOption(\"Yes\");\r\n        addOption(\"No\");\r\n        tokenContract = _tokenContract;\r\n    }\r\n\r\n    function addOption (string _name) private {\r\n        optionsCount ++;\r\n        options[optionsCount] = Option(optionsCount, _name, 0);\r\n    }\r\n\r\n    function assignProposalSelection(uint _id, string _kind) public {\r\n        selectedProposal = SelectedProposal(_id, _kind);\r\n    }\r\n\r\n    function compareStrings (string a, string b) public view returns (bool){\r\n        return keccak256(a) == keccak256(b);\r\n    }\r\n\r\n    function assignVoterName(string _name) public {\r\n        if(compareStrings(_name, \"bank\")){\r\n            voters[msg.sender] = Voter(_name, true);\r\n        }\r\n        else {\r\n            voterCount++;\r\n            votersByIndex[voterCount] = VoterWithAddress(msg.sender, _name);\r\n            voters[msg.sender] = Voter(_name, false);\r\n            emit nameAssignEvent(msg.sender);\r\n        }\r\n        \r\n    }\r\n\r\n    function createTransferProposal(uint _amount, address _receivingAccount) public {\r\n        transferProposalCount++;\r\n        transferMotions[transferProposalCount] = TransferMotion(transferProposalCount, _amount, _receivingAccount, false);\r\n    }\r\n\r\n    function createMintProposal(uint _amount) public {\r\n        mintProposalCount++;\r\n        mintMotions[mintProposalCount] = MintMotion(mintProposalCount, _amount, false);\r\n    }\r\n\r\n    function vote (uint _optionId) public {\r\n        // require that they haven't voted before\r\n        //require(!voters[msg.sender]);\r\n        require(!voters[msg.sender].hasVoted);\r\n\r\n        // require a valid option\r\n        require(_optionId > 0 && _optionId <= optionsCount);\r\n\r\n        // record that voter has voted\r\n        //voters[msg.sender] = true;\r\n        voters[msg.sender].hasVoted = true;\r\n\r\n        // update option vote Count\r\n        options[_optionId].voteCount ++;\r\n\r\n        // trigger voted event\r\n        emit votedEvent(_optionId);\r\n    }\r\n}\r\n",
  "sourcePath": "C:\\Nik\\react\\election_react\\contracts\\Proposal.sol",
  "compiler": {
    "name": "solc",
    "version": "0.4.24+commit.e67f0147.Emscripten.clang"
  },
  "schemaVersion": "2.0.1",
  "updatedAt": "2018-10-19T20:17:12.618Z"
}